{
  "contractName": "NFTExchange",
  "abi": [
    {
      "constant": false,
      "inputs": [
        {
          "name": "token",
          "type": "address"
        },
        {
          "name": "tokenId",
          "type": "uint256"
        }
      ],
      "name": "wrapToken",
      "outputs": [],
      "payable": false,
      "stateMutability": "nonpayable",
      "type": "function"
    },
    {
      "constant": false,
      "inputs": [
        {
          "name": "askTokenHash",
          "type": "bytes32"
        },
        {
          "name": "offerTokenHash",
          "type": "bytes32"
        }
      ],
      "name": "proposeSwap",
      "outputs": [],
      "payable": false,
      "stateMutability": "nonpayable",
      "type": "function"
    },
    {
      "constant": false,
      "inputs": [
        {
          "name": "proposalHash",
          "type": "bytes32"
        }
      ],
      "name": "acceptSwap",
      "outputs": [],
      "payable": false,
      "stateMutability": "nonpayable",
      "type": "function"
    },
    {
      "constant": true,
      "inputs": [
        {
          "name": "",
          "type": "bytes32"
        }
      ],
      "name": "_tokens",
      "outputs": [
        {
          "name": "owner",
          "type": "address"
        },
        {
          "name": "token",
          "type": "address"
        },
        {
          "name": "tokenId",
          "type": "uint256"
        }
      ],
      "payable": false,
      "stateMutability": "view",
      "type": "function"
    },
    {
      "constant": false,
      "inputs": [
        {
          "name": "tokenHash",
          "type": "bytes32"
        }
      ],
      "name": "unwrapToken",
      "outputs": [],
      "payable": false,
      "stateMutability": "nonpayable",
      "type": "function"
    },
    {
      "constant": false,
      "inputs": [
        {
          "name": "proposalHash",
          "type": "bytes32"
        }
      ],
      "name": "cancelProposedSwap",
      "outputs": [],
      "payable": false,
      "stateMutability": "nonpayable",
      "type": "function"
    },
    {
      "constant": true,
      "inputs": [
        {
          "name": "",
          "type": "bytes32"
        }
      ],
      "name": "_proposedSwaps",
      "outputs": [
        {
          "name": "askToken",
          "type": "bytes32"
        },
        {
          "name": "offerToken",
          "type": "bytes32"
        }
      ],
      "payable": false,
      "stateMutability": "view",
      "type": "function"
    },
    {
      "anonymous": false,
      "inputs": [
        {
          "indexed": false,
          "name": "owner",
          "type": "address"
        },
        {
          "indexed": false,
          "name": "token",
          "type": "address"
        },
        {
          "indexed": false,
          "name": "tokenId",
          "type": "uint256"
        }
      ],
      "name": "_TokenWrapped",
      "type": "event"
    },
    {
      "anonymous": false,
      "inputs": [
        {
          "indexed": false,
          "name": "owner",
          "type": "address"
        },
        {
          "indexed": false,
          "name": "token",
          "type": "address"
        },
        {
          "indexed": false,
          "name": "tokenId",
          "type": "uint256"
        }
      ],
      "name": "_TokenUnwrapped",
      "type": "event"
    },
    {
      "anonymous": false,
      "inputs": [
        {
          "indexed": false,
          "name": "offerTokenOwner",
          "type": "address"
        },
        {
          "indexed": false,
          "name": "askTokenOwner",
          "type": "address"
        },
        {
          "indexed": false,
          "name": "offerToken",
          "type": "address"
        },
        {
          "indexed": false,
          "name": "askToken",
          "type": "address"
        },
        {
          "indexed": false,
          "name": "offerTokenId",
          "type": "uint256"
        },
        {
          "indexed": false,
          "name": "askTokenId",
          "type": "uint256"
        }
      ],
      "name": "_SwapProposed",
      "type": "event"
    },
    {
      "anonymous": false,
      "inputs": [
        {
          "indexed": false,
          "name": "offerTokenOwner",
          "type": "address"
        },
        {
          "indexed": false,
          "name": "askTokenOwner",
          "type": "address"
        },
        {
          "indexed": false,
          "name": "offerToken",
          "type": "address"
        },
        {
          "indexed": false,
          "name": "askToken",
          "type": "address"
        },
        {
          "indexed": false,
          "name": "offerTokenId",
          "type": "uint256"
        },
        {
          "indexed": false,
          "name": "askTokenId",
          "type": "uint256"
        }
      ],
      "name": "_ProposalCanceled",
      "type": "event"
    },
    {
      "anonymous": false,
      "inputs": [
        {
          "indexed": false,
          "name": "offerTokenOwner",
          "type": "address"
        },
        {
          "indexed": false,
          "name": "askTokenOwner",
          "type": "address"
        },
        {
          "indexed": false,
          "name": "offerToken",
          "type": "address"
        },
        {
          "indexed": false,
          "name": "askToken",
          "type": "address"
        },
        {
          "indexed": false,
          "name": "offerTokenId",
          "type": "uint256"
        },
        {
          "indexed": false,
          "name": "askTokenId",
          "type": "uint256"
        }
      ],
      "name": "_SwapExecuted",
      "type": "event"
    }
  ],
  "bytecode": "0x6060604052341561000f57600080fd5b6112588061001e6000396000f300606060405260043610610083576000357c0100000000000000000000000000000000000000000000000000000000900463ffffffff168063460b53e3146100885780634d078bdd146100ca5780635c9682fa146100fe5780638a30b2a314610125578063b38a7181146101c6578063b5d4a417146101ed578063e6b6642b14610214575b600080fd5b341561009357600080fd5b6100c8600480803573ffffffffffffffffffffffffffffffffffffffff16906020019091908035906020019091905050610266565b005b34156100d557600080fd5b6100fc60048080356000191690602001909190803560001916906020019091905050610516565b005b341561010957600080fd5b61012360048080356000191690602001909190505061082e565b005b341561013057600080fd5b61014a600480803560001916906020019091905050610b9d565b604051808473ffffffffffffffffffffffffffffffffffffffff1673ffffffffffffffffffffffffffffffffffffffff1681526020018373ffffffffffffffffffffffffffffffffffffffff1673ffffffffffffffffffffffffffffffffffffffff168152602001828152602001935050505060405180910390f35b34156101d157600080fd5b6101eb600480803560001916906020019091905050610c07565b005b34156101f857600080fd5b610212600480803560001916906020019091905050610f2c565b005b341561021f57600080fd5b6102396004808035600019169060200190919050506111a2565b60405180836000191660001916815260200182600019166000191681526020019250505060405180910390f35b6000811415151561027657600080fd5b60008273ffffffffffffffffffffffffffffffffffffffff161415151561029c57600080fd5b6060604051908101604052803373ffffffffffffffffffffffffffffffffffffffff1681526020018373ffffffffffffffffffffffffffffffffffffffff168152602001828152506000808484604051808373ffffffffffffffffffffffffffffffffffffffff1673ffffffffffffffffffffffffffffffffffffffff166c010000000000000000000000000281526014018281526020019250505060405180910390206000191660001916815260200190815260200160002060008201518160000160006101000a81548173ffffffffffffffffffffffffffffffffffffffff021916908373ffffffffffffffffffffffffffffffffffffffff16021790555060208201518160010160006101000a81548173ffffffffffffffffffffffffffffffffffffffff021916908373ffffffffffffffffffffffffffffffffffffffff160217905550604082015181600201559050508173ffffffffffffffffffffffffffffffffffffffff1663b2e6ceeb826040518263ffffffff167c010000000000000000000000000000000000000000000000000000000002815260040180828152602001915050600060405180830381600087803b151561045f57600080fd5b6102c65a03f1151561047057600080fd5b5050507fc151d48fbf2eadd995f44199d4b9964fb6d760ac48b9be79032c38c6d3a1db39338383604051808473ffffffffffffffffffffffffffffffffffffffff1673ffffffffffffffffffffffffffffffffffffffff1681526020018373ffffffffffffffffffffffffffffffffffffffff1673ffffffffffffffffffffffffffffffffffffffff168152602001828152602001935050505060405180910390a15050565b600080600080856000191660001916815260200190815260200160002091506000808460001916600019168152602001908152602001600020905060008260000160009054906101000a900473ffffffffffffffffffffffffffffffffffffffff1673ffffffffffffffffffffffffffffffffffffffff161415151561059b57600080fd5b3373ffffffffffffffffffffffffffffffffffffffff168160000160009054906101000a900473ffffffffffffffffffffffffffffffffffffffff1673ffffffffffffffffffffffffffffffffffffffff161415156105f957600080fd5b604080519081016040528085600019168152602001846000191681525060016000868660405180836000191660001916815260200182600019166000191681526020019250505060405180910390206000191660001916815260200190815260200160002060008201518160000190600019169055602082015181600101906000191690559050507f1f4d132c4830a1383161d683a2b8dc260de8ece8ef3cc77cdce1d0db32faa5cc8160000160009054906101000a900473ffffffffffffffffffffffffffffffffffffffff168360000160009054906101000a900473ffffffffffffffffffffffffffffffffffffffff168360010160009054906101000a900473ffffffffffffffffffffffffffffffffffffffff168560010160009054906101000a900473ffffffffffffffffffffffffffffffffffffffff1685600201548760020154604051808773ffffffffffffffffffffffffffffffffffffffff1673ffffffffffffffffffffffffffffffffffffffff1681526020018673ffffffffffffffffffffffffffffffffffffffff1673ffffffffffffffffffffffffffffffffffffffff1681526020018573ffffffffffffffffffffffffffffffffffffffff1673ffffffffffffffffffffffffffffffffffffffff1681526020018473ffffffffffffffffffffffffffffffffffffffff1673ffffffffffffffffffffffffffffffffffffffff168152602001838152602001828152602001965050505050505060405180910390a150505050565b60008060008060016000866000191660001916815260200190815260200160002093506000808560000154600019166000191681526020019081526020016000209250600080856001015460001916600019168152602001908152602001600020915060008260000160009054906101000a900473ffffffffffffffffffffffffffffffffffffffff1673ffffffffffffffffffffffffffffffffffffffff16141515156108db57600080fd5b3373ffffffffffffffffffffffffffffffffffffffff168360000160009054906101000a900473ffffffffffffffffffffffffffffffffffffffff1673ffffffffffffffffffffffffffffffffffffffff1614151561093957600080fd5b8160000160009054906101000a900473ffffffffffffffffffffffffffffffffffffffff169050338260000160006101000a81548173ffffffffffffffffffffffffffffffffffffffff021916908373ffffffffffffffffffffffffffffffffffffffff160217905550808360000160006101000a81548173ffffffffffffffffffffffffffffffffffffffff021916908373ffffffffffffffffffffffffffffffffffffffff1602179055506109ef856111c6565b7fe948b844bc9ee6be2c75c8fbb8cd254875b27fa9a755788bcd70b4c4ced1e40f8260000160009054906101000a900473ffffffffffffffffffffffffffffffffffffffff168460000160009054906101000a900473ffffffffffffffffffffffffffffffffffffffff168460010160009054906101000a900473ffffffffffffffffffffffffffffffffffffffff168660010160009054906101000a900473ffffffffffffffffffffffffffffffffffffffff1686600201548860020154604051808773ffffffffffffffffffffffffffffffffffffffff1673ffffffffffffffffffffffffffffffffffffffff1681526020018673ffffffffffffffffffffffffffffffffffffffff1673ffffffffffffffffffffffffffffffffffffffff1681526020018573ffffffffffffffffffffffffffffffffffffffff1673ffffffffffffffffffffffffffffffffffffffff1681526020018473ffffffffffffffffffffffffffffffffffffffff1673ffffffffffffffffffffffffffffffffffffffff168152602001838152602001828152602001965050505050505060405180910390a15050505050565b60006020528060005260406000206000915090508060000160009054906101000a900473ffffffffffffffffffffffffffffffffffffffff16908060010160009054906101000a900473ffffffffffffffffffffffffffffffffffffffff16908060020154905083565b6000806000836000191660001916815260200190815260200160002090503373ffffffffffffffffffffffffffffffffffffffff168160000160009054906101000a900473ffffffffffffffffffffffffffffffffffffffff1673ffffffffffffffffffffffffffffffffffffffff16141515610c8357600080fd5b606060405190810160405280600073ffffffffffffffffffffffffffffffffffffffff168152602001600073ffffffffffffffffffffffffffffffffffffffff1681526020016000815250600080846000191660001916815260200190815260200160002060008201518160000160006101000a81548173ffffffffffffffffffffffffffffffffffffffff021916908373ffffffffffffffffffffffffffffffffffffffff16021790555060208201518160010160006101000a81548173ffffffffffffffffffffffffffffffffffffffff021916908373ffffffffffffffffffffffffffffffffffffffff160217905550604082015181600201559050508060010160009054906101000a900473ffffffffffffffffffffffffffffffffffffffff1673ffffffffffffffffffffffffffffffffffffffff1663a9059cbb3383600201546040518363ffffffff167c0100000000000000000000000000000000000000000000000000000000028152600401808373ffffffffffffffffffffffffffffffffffffffff1673ffffffffffffffffffffffffffffffffffffffff16815260200182815260200192505050600060405180830381600087803b1515610e4d57600080fd5b6102c65a03f11515610e5e57600080fd5b5050507fa4a7281c2830417310d29bfe003a89d7a812bcb64b43929ad14198435e9cee3c338260010160009054906101000a900473ffffffffffffffffffffffffffffffffffffffff168360020154604051808473ffffffffffffffffffffffffffffffffffffffff1673ffffffffffffffffffffffffffffffffffffffff1681526020018373ffffffffffffffffffffffffffffffffffffffff1673ffffffffffffffffffffffffffffffffffffffff168152602001828152602001935050505060405180910390a15050565b60008060006001600085600019166000191681526020019081526020016000209250600080846000015460001916600019168152602001908152602001600020915060008084600101546000191660001916815260200190815260200160002090503373ffffffffffffffffffffffffffffffffffffffff168160000160009054906101000a900473ffffffffffffffffffffffffffffffffffffffff1673ffffffffffffffffffffffffffffffffffffffff16141515610fec57600080fd5b610ff5846111c6565b7f217330c18a083fb2870b413ce537503cb8b120da832f94136055fbbc09b0cee38160000160009054906101000a900473ffffffffffffffffffffffffffffffffffffffff168360000160009054906101000a900473ffffffffffffffffffffffffffffffffffffffff168360010160009054906101000a900473ffffffffffffffffffffffffffffffffffffffff168560010160009054906101000a900473ffffffffffffffffffffffffffffffffffffffff1685600201548760020154604051808773ffffffffffffffffffffffffffffffffffffffff1673ffffffffffffffffffffffffffffffffffffffff1681526020018673ffffffffffffffffffffffffffffffffffffffff1673ffffffffffffffffffffffffffffffffffffffff1681526020018573ffffffffffffffffffffffffffffffffffffffff1673ffffffffffffffffffffffffffffffffffffffff1681526020018473ffffffffffffffffffffffffffffffffffffffff1673ffffffffffffffffffffffffffffffffffffffff168152602001838152602001828152602001965050505050505060405180910390a150505050565b60016020528060005260406000206000915090508060000154908060010154905082565b604080519081016040528060006001026000191681526020016000600102600019168152506001600083600019166000191681526020019081526020016000206000820151816000019060001916905560208201518160010190600019169055905050505600a165627a7a7230582017ab38b2d863b0af26d1c9ee51d70148e1221ab2484760d1c8e7600b33cedf260029",
  "source": "pragma solidity ^0.4.18;\n\nimport 'zeppelin-solidity/contracts/math/SafeMath.sol';\nimport 'zeppelin-solidity/contracts/token/ERC721/ERC721.sol';\n\ncontract NFTExchange {\n  using SafeMath for uint256;\n\n  event _TokenWrapped(address owner, address token, uint256 tokenId);\n  event _TokenUnwrapped(address owner, address token, uint256 tokenId);\n  event _SwapProposed(address offerTokenOwner, address askTokenOwner, address offerToken, address askToken, uint256 offerTokenId, uint256 askTokenId);\n  event _ProposalCanceled(address offerTokenOwner, address askTokenOwner, address offerToken, address askToken, uint256 offerTokenId, uint256 askTokenId);\n  event _SwapExecuted(address offerTokenOwner, address askTokenOwner, address offerToken, address askToken, uint256 offerTokenId, uint256 askTokenId);\n\n  struct ExchangeToken {\n    address owner;\n    ERC721 token;\n    uint256 tokenId;\n  }\n\n  struct ProposedSwap {\n    bytes32 askToken;\n    bytes32 offerToken;\n  }\n\n  mapping(bytes32 => ExchangeToken) public _tokens;\n  mapping(bytes32 => ProposedSwap) public _proposedSwaps;\n\n  function wrapToken(ERC721 token, uint256 tokenId) public {\n    require(tokenId != 0);\n    require(address(token) != 0x0);\n\n    _tokens[keccak256(token, tokenId)] = ExchangeToken(\n      msg.sender,\n      token,\n      tokenId\n    );\n\n    token.takeOwnership(tokenId);\n\n    _TokenWrapped(msg.sender, address(token), tokenId);\n  }\n\n  function unwrapToken(bytes32 tokenHash) public {\n    ExchangeToken storage exchangeToken = _tokens[tokenHash];\n    require(exchangeToken.owner == msg.sender);\n\n    _tokens[tokenHash] = ExchangeToken(0x0, ERC721(0x0), 0);\n    exchangeToken.token.transfer(msg.sender, exchangeToken.tokenId);\n\n    _TokenUnwrapped(msg.sender, address(exchangeToken.token), exchangeToken.tokenId);\n  }\n\n  function proposeSwap(bytes32 askTokenHash, bytes32 offerTokenHash) public {\n    ExchangeToken storage askToken = _tokens[askTokenHash];\n    ExchangeToken storage offerToken = _tokens[offerTokenHash];\n\n    // token you're asking for has to be wrapped by some owner\n    require(askToken.owner != 0x0);\n  \n    // you can only offer a token you own\n    require(offerToken.owner == msg.sender);\n\n    _proposedSwaps[keccak256(askTokenHash, offerTokenHash)] = ProposedSwap(askTokenHash, offerTokenHash);\n\n    _SwapProposed(\n      offerToken.owner,\n      askToken.owner,\n      address(offerToken.token),\n      address(askToken.token),\n      offerToken.tokenId,\n      askToken.tokenId\n    );\n  }\n\n  function cancelProposedSwap(bytes32 proposalHash) public {\n    ProposedSwap storage proposal = _proposedSwaps[proposalHash];\n    ExchangeToken storage askToken = _tokens[proposal.askToken];\n    ExchangeToken storage offerToken = _tokens[proposal.offerToken];\n    require(offerToken.owner == msg.sender);\n\n    _clearProposedSwap(proposalHash);\n\n    _ProposalCanceled(\n      offerToken.owner,\n      askToken.owner,\n      address(offerToken.token),\n      address(askToken.token),\n      offerToken.tokenId,\n      askToken.tokenId\n    );\n  }\n\n  function acceptSwap(bytes32 proposalHash) public {\n    ProposedSwap storage proposal = _proposedSwaps[proposalHash];\n    ExchangeToken storage askToken = _tokens[proposal.askToken];\n    ExchangeToken storage offerToken = _tokens[proposal.offerToken];\n    require(offerToken.owner != 0x0);\n    require(askToken.owner == msg.sender);\n\n    // swap ownership\n    address proposer = offerToken.owner;\n    offerToken.owner = msg.sender;\n    askToken.owner = proposer;\n\n    _clearProposedSwap(proposalHash);\n\n    _SwapExecuted(\n      offerToken.owner,\n      askToken.owner,\n      address(offerToken.token),\n      address(askToken.token),\n      offerToken.tokenId,\n      askToken.tokenId\n    );\n  }\n\n  function _clearProposedSwap(bytes32 proposalHash) internal {\n    _proposedSwaps[proposalHash] = ProposedSwap(0x0, 0x0);\n  }\n\n}\n",
  "sourcePath": "/Users/mfcalvanese/dev/eth/nft-exchange/contracts/NFTExchange.sol",
  "compiler": {
    "name": "solc",
    "version": "0.4.18+commit.9cf6e910.Emscripten.clang"
  },
  "schemaVersion": "1.0.1",
  "updatedAt": "2018-03-17T04:03:08.603Z"
}